:020000040800F2
:10000000C03C0020F9010008FF1E00083F1C00084A
:10001000FD1E0008810300086D3600080000000086
:100020000000000000000000000000006101000866
:10003000FD03000800000000A50100086922000877
:10004000130200081302000813020008130200083C
:10005000130200081302000813020008130200082C
:10006000130200081302000813020008130200081C
:100070001302000813020008F9050008050600082D
:1000800013020008130200081302000813020008FC
:1000900009360008130200081302000813020008C2
:1000A0001302000865230008130200081302000869
:1000B00013020008130200081302000813020008CC
:1000C00013020008130200081302000813020008BC
:1000D00013020008FD2300081302000813020008A1
:1000E000130200081302000813020008130200089C
:1000F000130200081302000813020008130200088C
:10010000130200081302000813020008130200087B
:10011000130200081302000813020008130200086B
:100120001302000813020008110600081D0600084B
:10013000DFF810D000F0D8F8004800476D470008FD
:10014000AFF30080C03C00204FF0000383F314881D
:1001500082F30888BFF34F8FBFF36F8F084700BF4C
:10016000224B19680868B0E8F00F80F30988BFF3E4
:100170006F8F4FF0000080F311884EF00D0E704726
:100180000000000006480068006880F3088862B636
:1001900061B6BFF34F8FBFF36F8F00DF00BF00BFAB
:1001A00008ED00E0EFF30980BFF36F8F0F4B1A6883
:1001B00020E9F00F106008B54FF0500080F311886F
:1001C000BFF34F8FBFF36F8F05F0EEF94FF00000D4
:1001D00080F31188BDE8084019680868B0E8F00F9E
:1001E00080F30988BFF36F8F704700BFF4000020D1
:1001F000EFF3058070470000064880470648004737
:10020000FEE7FEE7FEE7FEE7FEE7FEE7FEE7FEE7C6
:10021000FEE7FEE7F522000831010008202A04DB92
:10022000203A21FA02F00021704721FA02F3D0406F
:10023000C2F12002914008431946704740EA010389
:100240009B0703D009E008C9121F08C0042AFAD28C
:1002500003E011F8013B00F8013B521EF9D2704750
:10026000D2B201E000F8012B491EFBD270470022F8
:10027000F6E710B513460A4604461946FFF7F0FFA5
:10028000204610BD2DE9F05F0546002092469B46B2
:1002900088460646814640241BE02846414647469C
:1002A0002246FFF7BBFF53465A46C01A914110D36E
:1002B00011461846224600F029F82D1A67EB01086E
:1002C0004F4622460120002100F020F817EB0009DC
:1002D0004E41201EA4F10104DFDC484631462A4687
:1002E0004346BDE8F09F0000064C074D06E0E0687D
:1002F00040F0010394E8070098471034AC42F6D36D
:10030000FFF71AFFDC680008FC680008202A04DBFD
:10031000203A00FA02F1002070479140C2F1200318
:1003200020FA03F319439040704770B58C1810F809
:10033000015B15F0070301D110F8013B2A1106D12A
:1003400010F8012B03E010F8016B01F8016B5B1E44
:10035000F9D12B0705D40023521E0DD401F8013B1F
:10036000FAE710F8013BCB1A921C03E013F8015B8B
:1003700001F8015B521EF9D5A142D8D3002070BD0F
:10038000FEE70020704700207047000010B50022F3
:100390000449054802F004F90449034802F0FAF858
:1003A000002010BD34190020281100204C15002019
:1003B00010B50446096803F0E9FB2146034802F042
:1003C000E9F8024802F0CAF8002010BD2811002008
:1003D0000A46094910B5D1F81812D1F8141209B11A
:1003E000012010BD0146044802F0DAF8BDE81040D3
:1003F000014802F015B9000028110020704770472D
:10040000214365872DE9F05F644C0527214694F868
:1004100002C08A8948690326614B097800254FF09C
:10042000070A4FF0120B4FF00109BCF10B0F1CD261
:10043000DFE80CF0060E1D324E74787D8294A40025
:100440001F7083F801B084F802906571A5718EE089
:10045000212902D0092907D092E01E7083F801906B
:10046000C3F804B0022026E0A570BDE8F09F022981
:10047000FBD10121002004F003FF432005F09EFA88
:1004800048486061A6700121002004F0F9FE432075
:1004900005F094FAE581E8E72179002970D0E5813B
:1004A000B2F5777F09D034216172C9B204F042FA03
:1004B000FF2804D00420A07059E02421F4E7012192
:1004C000002004F0DDFE062005F078FAA770CCE7E6
:1004D000042902D0FE2916D052E0617A0A44A28192
:1004E00008446061A670E581E571242907D1257172
:1004F0000121002004F0C4FE062005F05FFA6079B7
:100500000028DCD1B1E7A670E079401CC0B2E071F0
:100510000528AAD9BDE8F05F04F0E4BD1E705F7045
:10052000062022E006292BD184F802A09DE71E7048
:1005300083F801A0082018E0082902D0FA2902D087
:100540001EE0092028E004F0CDFD0121002004F088
:1005500097FEBDE8F05F152005F030BAA07968B1CC
:10056000A5711E700B2058700A20A070E5812570BF
:1005700004F044FD0C49C1F8249076E70C2903D01F
:10058000BDE8F05F04F0D4BD0121002004F078FE46
:10059000062005F013FA0B20A07066E7B8030020D0
:1005A0002010002000D00008240000200648016828
:1005B00041F080710160054800214160016841F00F
:1005C0000101016070470000FCED00E0001000E058
:1005D00006490548086006490220C1F8F0000549AF
:1005E000202048607047000001000001FCED00E0A1
:1005F000000004E0002004E0014800F0A9B8000079
:10060000A0040020014800F0A3B800005C04002012
:10061000014800F09DB80000D4030020014800F01C
:1006200097B8000018040020034900224A604A6875
:100630008242FCD370470000001000E00649002011
:10064000C8610648016941F004010161016941F096
:100650004001016170470000A023002000200240FB
:10066000064A0021D16106490A6942F002020A6184
:100670004861086940F0400008617047A0230020ED
:1006800000200240044B0022DA61044A136943F05F
:100690000103136101807047A02300200020024065
:1006A00014490020CA68D306134A04D5D06940F023
:1006B0000200D0611020CB685B0705D5D36943F0F9
:1006C0000103D36140F00400CB69DB0707D0D36995
:1006D00043F00403D361CA6922F00102CA61A0F5A4
:1006E0008072013A01D0C8607047C86920F00100EB
:1006F000C861704700200240A023002070B5044666
:1007000000F008FB0546114E09E0601C07D024B13B
:1007100000F000FB401BA04201D9032070BDF0682F
:10072000C007F2D1F068800601D52020F060F068A3
:10073000C00605D4F069C00702D1F068400703D5B0
:10074000FFF7AEFF012070BD002070BD0020024009
:100750002DE9F05FC16B0B6801680A68046C4FF00B
:10076000040808FA04F8844D844E854FDFF814C25B
:10077000DFF81492DFF814A2DFF814B2DFF814E205
:1007800018EA030F65D05FEA427862D50A689206DC
:1007900003D40A6822F004020A60DFF8F0814FF403
:1007A0008062016808F1140813011402414524D93C
:1007B000A9420DD0B1420FD0B9421AD0614515D02F
:1007C000494515D0514501D1120312E0594501D1D7
:1007D00004220EE0714501D140220AE06D4D14352E
:1007E000A94206D06B4A2832914201D11A4600E054
:1007F00022466749091F0A6029E0A94213D0B14285
:1008000015D0B94220D061451BD049451BD0514578
:1008100002D14FF4800217E0414502D14FF08062CF
:1008200012E0594501D104220EE0714501D1402268
:100830000AE0584D1435A94206D0564A2832914252
:1008400001D11A4600E022464B4908394A60C16A84
:1008500071E04FF0020808FA04F818EA030F70D0AC
:100860005FEA82786DD50A68920606D40A6822F09B
:100870000A020A60012180F82110DFF810814FF48C
:100880000072016808F1140813011402414524D9CB
:10089000A9420DD0B1420FD0B9421AD0614515D04E
:1008A000494515D0514501D1120312E0594501D1F6
:1008B00002220EE0714501D120220AE0354D1435A7
:1008C000A94206D0334A2832914201D11A4600E0AB
:1008D00022462F49091F0A6029E0A94213D0B142DC
:1008E00015D0B94220D061451BD049451BD0514598
:1008F00002D14FF4001217E0414502D14FF00072CF
:1009000012E0594501D102220EE0714501D12022A9
:100910000AE0204D1435A94206D01E4A28329142E1
:1009200001D11A4600E02246134908394A600021E5
:1009300080F82010816A00291CD0BDE8F05F0847CC
:10094000FFE70825A5401D4214D0120712D50A68FA
:1009500022F00E020A6090F84020C36B012101FAD8
:1009600002F25A60816380F82110002180F8201083
:10097000016BE0E7BDE8F09F080002401C00024068
:100980003000024044000240580002406C00024027
:10099000080402401C0402402DE9F047054628489F
:1009A0000F460126017E01290FD0012181460176E3
:1009B0002868DFF890804CF25034022808D0A24614
:1009C0002046FFF79BFEA8B135E00220BDE8F08786
:1009D0002046FFF793FE28BB0120FFF72FFE20469D
:1009E000FFF78CFED8F81010064621F00401C8F875
:1009F000101020E04FF0FF303860AC6815E0204662
:100A0000FFF72EFE214610A002F032FE5046FFF7FF
:100A100075FED8F81010060021F00201C8F8101079
:100A200001D03C6007E004F50064D5E9020100EB69
:100A3000C120A042E3D8002189F818103046C5E74C
:100A4000A023002000200240466C61736820706182
:100A500067652066726F6D206164647265737320D0
:100A6000307825387820657261736520636F6D700A
:100A70006C65746564210D0A000000002DE9F05FCB
:100A800005461D4888460024017E16461F4601295A
:100A900009D00121814601764CF2503A5046FFF7C9
:100AA0002DFE18B123E00220BDE8F09F012D02D0F9
:100AB000022D00D00425D346DFF840A015E0220126
:100AC00030463946FFF7AAFB81B208EB4400FFF736
:100AD000D9FD5846FFF712FEDAF8102022F0010285
:100AE000CAF8102018B9641CE4B2AC42E7D3002263
:100AF00089F81820D8E70000A02300200020024039
:100B0000064900200A69120607D5054A4A60054AC7
:100B10004A600969090600D501207047002002409B
:100B200023016745AB89EFCD2DE9F84FDFF8BC9184
:100B3000002309F1040A0AF1040B1C464FF00F08C8
:100B40000BF1040E01270A68A7403A40BA4272D15D
:100B5000DFF89CC14D68A5EB0C0665452BD00DDC7C
:100B6000032D34D005DC35B3012D19D0022D2FD142
:100B70001BE0112D16D0122D2AD119E0B6F5881FD1
:100B800019D006DCB6F5803F15D0B6F5801F1FD111
:100B900011E0B6F5001F0ED0B6F5041F18D10AE01B
:100BA000CB6815E0CB681B1D12E0CB6808330FE063
:100BB000CB680C330CE08B682BB1012B4FF0080392
:100BC00003D0476104E0042302E0076100E0002352
:100BD000FF2A01D8064601E000F104064FEA840529
:100BE00001D9A5F12005376808FA05FC27EA0C07AA
:100BF00003FA05F547EA050737604D68ED006ED545
:100C00003C4DAE6946F00106AE61AD6924F00306C5
:100C100005F001050095384D7719BE68A5072D0F21
:100C200008FA05FC26EA0C06DFF8D0C0604503D1BF
:100C30004FF0000C25E052E0DFF8C4C0604502D15F
:100C40004FF0010C1DE0DFF8BCC0604502D14FF051
:100C5000020C16E0DFF8B0C0604502D14FF0030C83
:100C60000FE0DFF8A8C0604502D14FF0040C08E0A7
:100C7000DFF89CC0604502D14FF0050C01E04FF059
:100C8000060C0CFA05FC4CEA060CC7F808C04D68C7
:100C9000D9F80060ED034D4601D5164300E09643B8
:100CA0002E604D68DAF80060AD03554601D5164355
:100CB00000E096432E604D68DBF80060ED025D4673
:100CC00001D5164300E096432E604D68DEF80060C3
:100CD000AD02754601D5164300E096432E60641CB4
:100CE000102CFFF42FAFBDE8F88F00000004014086
:100CF00000001110001002400000014000080140F7
:100D0000000C014000100140001401400018014097
:100D1000001C01400148806870470000E40000208A
:100D2000024881680278114481607047E400002025
:100D3000074810B5016841F010010160032000F080
:100D4000B9F8002000F006F800F03EF8002010BDD1
:100D50000020024000B5014687B00022192000F0B3
:100D600089F8192000F07BF81348816941F400618B
:100D70008161806905A900F400600690684600F072
:100D800089FC00F0A7FC0D490D4AB0FBF1F10D48BC
:100D9000491E0260416040F2E7320021C0E90321B0
:100DA000816000F05FFE10B1012007B000BD054872
:100DB00000F074FEF9E700000010024040420F000E
:100DC000002C0140E00F00201D4808B5816941F06A
:100DD00001018161816901F001010091C16941F066
:100DE0008051C161C069002200F08050009005214F
:100DF0006FF00B0000F03EF8002205216FF00A00B2
:100E000000F038F8002205216FF0090000F032F8F8
:100E100000220421501F00F02DF800220521101F90
:100E200000F028F800220F21901E00F023F8054959
:100E3000486820F0E06040F08070486008BD000025
:100E4000001002400000014000F01F02012191400B
:100E50004009800000F1E020C0F88012704700F0E7
:100E60001F02012191404009800000F1E020C0F8FC
:100E700000117047F0B40E4B1B68C3F30223C3F19B
:100E80000704042C00D904241D1D072D01D20023C2
:100E900000E0DB1E012606FA04F56D1E0D409D40A4
:100EA0009E40761E164045EA0601F0BC01F028B8C7
:100EB0000CED00E0064A00F0070110684FF6FF0352
:100EC000184040EA012003490843106070470000C1
:100ED0000CED00E00000FA0510B50C0605D501F098
:100EE0007F0100EB4110283003E000EB411000F5DA
:100EF0000A7099B232B101228272C180190C01814B
:100F0000002010BD002282728180F9E7704700EB5B
:100F10004112D0F85C04D26B01F03CBD00EB4112F1
:100F2000D0F85C04D2F83C2201F089BD10B504462B
:100F30000A460B0601F07F0004EB401101D5283171
:100F400001E001F50A710870D009487094F828048E
:100F5000012809D0012084F82804206802F07BF9D8
:100F6000002084F8280410BD022010BD70B50A4688
:100F70000446090602F07F0003D504EB4011283136
:100F800003E004EB421101F50A7100258D70087031
:100F9000D009487094F82804012809D0012084F869
:100FA0002804206802F0FBF984F82854002070BD62
:100FB000022070BD01F00F0100EB4110B0F84402B7
:100FC00080B2704770B504460D460E0601F07F00F2
:100FD00004EB401101D5283101E001F50A710870D8
:100FE000E80948700A61CB7094F82804012809D0F8
:100FF000012084F82804206802F002F8002084F818
:10100000280470BD022070BD70B50D4601F07F044C
:1010100000EB4411C1E98F230022C1F8442281F87A
:10102000292281F8284201F50A716A06006802F057
:1010300010FA002070BD70B50D460446090605F093
:101040007F0003D504EB4011283103E004EB451188
:1010500001F50A7101228A700870E809487094F855
:101060002804012807D084F82824206802F0CCF94D
:10107000680602D006E0022070BD04F22C41206810
:1010800002F08BF9002084F8280470BD70B50D467D
:1010900001F07F0400EB4411C1E90F2300224A64F0
:1010A000012281F8292001F8284F6A06006802F021
:1010B000D0F9002070BD10B50446006802F0AAFA0D
:1010C000000402D5204600F02BFF206802F0A2FAAF
:1010D00040050CD5206830F8441F21F48061018060
:1010E000204600F0EBF80021204600F0FCF82068D4
:1010F00002F090FA400405D5206830F8441F21F42E
:1011000080410180206802F085FA800405D52068BE
:1011100030F8441F21F400510180206802F07AFA6F
:10112000C00414D5206830F8401F21F0040101806C
:10113000206830F8401F21F008010180204600F0AF
:10114000CAF8206830F8441F21F4805101802068DB
:1011500002F060FA00051AD5206830F8401F41F00F
:1011600008010180206830F8441F21F400610180EB
:10117000206830F8401F41F004010180206802F02F
:1011800049FAC043C00402D5204600F0E1F82068C7
:1011900002F040FA800508D5206830F8441F21F499
:1011A00000710180204600F09AF8206802F032FABF
:1011B000C00505D5206830F8441F21F480710180F6
:1011C00010BD2DE9F04186B004004FF0000504D0B9
:1011D00094F82904002620B108E0012006B0BDE8FB
:1011E000F08184F82864204600F04AF8032084F84F
:1011F0002904206802F0CAF804F11001142288467C
:101200006846FFF71BF894E80F0002F022F800216F
:10121000206802F010FA012704EB451080F82970CD
:1012200000F8285F8581C670066146616D1C866185
:101230000F2DF1D3002104EB411080F8296280F8D2
:101240002812818680F82B62C0F83862C0F83C62B0
:10125000491CC0F840620F29EDD31422414668466C
:10126000FEF7ECFF94E80F0002F081F884F82460A8
:1012700084F82974206802F078F80020AEE70000B6
:1012800008B500680B49884212D10B48C16941F486
:101290000001C161C069002200F400000090052136
:1012A0001420FFF7E7FDBDE808401420FFF7D7BD85
:1012B00008BD0000005C00400010024010B504466C
:1012C0000121D0F85C0401F097FCD4F85C04BDE87F
:1012D000104001F060BCD0F85C0401F07BBCD0F899
:1012E0005C0401F07DBC10B5044690F82804012888
:1012F0000BD0012084F8280484F82410206802F020
:101300009CF9002084F8280410BD022010BDD0F8FC
:101310005C2400F22C41104601F081BC10B504465B
:1013200090F82804012810D0012084F828040146F0
:101330002046FFF7EBFD206802F015F8206802F068
:101340005BF9002084F8280410BD022010BD0000C5
:1013500010B50446D0F85C0401F0AEFCA06900288A
:1013600004D00348016841F00601016010BD00008F
:1013700010ED00E02DE9F84304460078344FC00733
:1013800052D0F8690025C00008D4F86940F08050B8
:10139000F861F869012500F0805000902D4801683F
:1013A000C90511D40168804641F480710160FFF7DE
:1013B000B1FC064604E0FFF7ADFC801B642822D890
:1013C000D8F80000C005F6D5386A10F4407020D077
:1013D000A18801F4407181421BD0386A1E49012264
:1013E00020F440700A6000220A603862C00710D002
:1013F000FFF790FC064641F2883807E0FFF78AFCC9
:10140000811B414502D90320BDE8F883386A800773
:10141000F4D5386A616820F44070084338621DB121
:10142000F86920F08050F8612078800705D5786849
:10143000A16820F44040084378602078C00605D5B4
:101440007868616920F48000084378600020DBE759
:101450000010024000700040400442422DE9F04775
:10146000DFF8508104460E46D8F8000000F007006F
:10147000B0420CD2D8F8001021F007013143C8F86F
:101480000010D8F8000000F00700B0426DD12068CD
:10149000494F810712D5400703D5786840F4E060D2
:1014A00078602078000703D5786840F46050786051
:1014B0007868A16820F0F000084378602078C007C1
:1014C00042D06068012816D03968022816D08907F2
:1014D00000294ADA796821F0030101437960FFF7B6
:1014E00019FC0546606841F2883101280ED00228B7
:1014F000894617D024E039688903E9E78901E7E7DD
:10150000FFF708FC411B494501D916E08946786878
:10151000C0F381000128F3D116E0FFF7FBFB411B6C
:1015200049450AD87868C0F381000228F5D10BE05C
:10153000FFF7F0FB411B494502D90320BDE8F087C6
:10154000786810F00C0FF3D1D8F80010404601F085
:101550000701B1420BD9016821F007013143016055
:10156000006800F00700B04201D00120E6E72078D3
:10157000400705D57868E16820F4E06008437860AA
:101580002078000706D57868216920F4605040EA89
:10159000C100786000F0AEF87968084AC1F3031121
:1015A000515CC840064908600020FFF7D3FB0020CB
:1015B000C4E7000000200240001002401C66000842
:1015C000F00000202DE9F041FFF7A4FB2E4D04466A
:1015D000286840F00100286004E0FFF79BFB001B37
:1015E000022841D828688007F7D5286820F0F8003D
:1015F00040F080002860FFF78DFB002604466E60F7
:1016000041F2883704E0FFF785FB001BB8422BD876
:10161000686810F00C0FF6D11D491C4808600020C6
:10162000FFF798FB10B10120BDE8F081FFF772FBD6
:101630000446286820F08070286004E0FFF76AFB09
:10164000001B022810D828688001F7D46E60FFF7CD
:1016500061FB0446286820F41020286006E0FFF7AC
:1016600059FB001B642801D90320DDE728688003AB
:10167000F5D4286820F480202860686A40F08070E3
:101680006862AE600020CFE70010024000127A00CE
:10169000F00000200F2202600C4A536803F003039D
:1016A0004360536803F0F0038360536803F4E0631E
:1016B000C36052684FF4E06303EAD2020261044857
:1016C000006800F00700086070470000001002404A
:1016D000002002400448054900684968044AC1F3F3
:1016E000C221515CC8407047F00000200010024049
:1016F0002C66000813A085B00FC88DE80F0015A058
:10170000154A00680490516801F00C00042804D0C8
:10171000082804D0114805B070471148FBE7C1F311
:101720008343C9031DF8030009D5516804AAC1F316
:101730004041515C0A4A5043B0FBF1F0EBE70949E4
:101740004843E8E702030405060708090A0B0C0DE5
:101750000E0F1010010200000010024000127A006B
:10176000001BB70000093D002DE9F84F0446007842
:10177000B64DC00747D06868C0F38100012807D084
:101780006868C0F38100022809D16868C00306D5E3
:101790002868800337D5606800286ED033E0606821
:1017A000B0F5803F0BD010B1B0F5A02F11D0286854
:1017B00020F480302860286820F4802002E0286827
:1017C00040F480302860606888B1FFF7A3FA0646CD
:1017D00009E0286840F480202860F0E7FFF79AFAD3
:1017E000801B642873D828688003F7D50BE0FFF7C7
:1017F00091FA064604E0FFF78DFA801B6428F1D8C1
:1018000028688003F7D42078DFF8448280074FF0FF
:10181000010A4FF0000939D5686810F00C0F07D0A5
:101820006868C0F38100022809D16868C00306D443
:101830002868800713D5206901281ED10FE0206990
:10184000A8B1C8F800A0FFF765FA064604E0FFF764
:1018500061FA801B0228C5D828688007F7D5286858
:10186000616920F0F80040EAC10028600EE0C8F885
:101870000090FFF74FFA064605E0E5E0FFF74AFA69
:10188000801B022823D828688007F7D42078000717
:101890002CD57049A069D8B1C1F800A0FFF73AFA79
:1018A000064604E0FFF736FA801B02280FD8686A64
:1018B0008007F7D568484FF4FA510068B0FBF1F0A3
:1018C000009000BF0098411E0091FAD20EE07CE02B
:1018D000C1F80090FFF71EFA064604E0FFF71AFA77
:1018E000801B022871D8686A8007F7D420784007E7
:1018F0005BD5E8690027C00008D4E86940F0805053
:10190000E861E869012700F08050009053480168C1
:10191000C90511D40168834641F480710160FFF765
:10192000F9F9064604E0FFF7F5F9801B64284CD866
:10193000DBF80000C005F6D5E06801280AD008B140
:10194000052813D0286A20F001002862286A20F0B8
:10195000040002E0286A40F001002862E06841F2D9
:10196000883B88B1FFF7D6F9064609E0286A40F0BF
:1019700004002862EEE7FFF7CDF9811B59455BD8DB
:10198000286A8007F7D50BE0FFF7C4F9064604E0A4
:10199000FFF7C0F9811B59454ED8286A8007F7D454
:1019A0001FB1E86920F08050E861E069A8B3696878
:1019B000C1F38101022947D00228484606D0C8F861
:1019C0006000FFF7A7F9044639E035E04746C8F85C
:1019D0006000FFF79FF9064604E0FFF79BF9801BC4
:1019E000022829D828688001F7D4206AB0F5803F02
:1019F00005D16868A16820F4003008436860D4E924
:101A000008010843696821F4741108436860C7F845
:101A100060A0FFF77FF9044605E013E0FFF77AF9CD
:101A2000001B022808D828688001F7D50AE0FFF7D4
:101A300071F9001B022802D90320BDE8F88F28683D
:101A40008001F4D40020F8E70120F6E700100240FE
:101A50000000424280044242F0000020007000403A
:101A60007047704710B5040003D094F83D0010B1E2
:101A700007E0012010BD002084F83C00204600F063
:101A80000CF8022084F83D00211D206800F070FC55
:101A9000012084F83D00002010BD70470168CA682D
:101AA00042F00102CA600068016841F00101016072
:101AB00000207047704770B50446006801694FF018
:101AC0000005C943890715D4C168C943890711D4E2
:101AD000E91E016101202077206880698007204687
:101AE00002D0FFF7E7FF04E000F098F8204600F08E
:101AF00096F8257720680169C943490717D4C1685A
:101B0000C943490713D46FF0040101610220207713
:101B10002068806910F4407F204602D0FFF7CAFF9A
:101B200004E000F07BF8204600F079F82577206883
:101B30000169C943090716D4C168C943090712D40A
:101B40006FF008010161042020772068C0698007D8
:101B5000204602D0FFF7AEFF04E000F05FF8204619
:101B600000F05DF8257720680169C943C90617D4DC
:101B7000C168C943C90613D46FF010010161082080
:101B800020772068C06910F4407F204602D0FFF71C
:101B900091FF04E000F042F8204600F040F825777D
:101BA00020680169C943C90708D1C168C943C90789
:101BB00004D1891E0161204600F032F820680169D5
:101BC000C943090609D4C168C943090605D46FF0A1
:101BD000800101612046FFF743FF20680169C94386
:101BE000490609D4C168C943490605D46FF04001CC
:101BF0000161204600F022F820680169C943890686
:101C00000BD4C168C943890607D46FF02001016174
:101C10002046BDE87040FFF724BF70BD7047704795
:101C200010B500680449884205D1FFF779F8BDE88E
:101C3000104000F083BB10BD002C01407047FEE750
:101C400003F0E0BC194808B5416941F00101416168
:101C5000416901F001010091416941F002014161D6
:101C60004069002200F00200009005210E20FFF7DD
:101C700001F90E20FFF7F3F8002205210F20FFF7EE
:101C8000F9F80F20FFF7EBF8002205213A20FFF7C3
:101C9000F1F83A20FFF7E3F8002205213B20FFF797
:101CA000E9F8BDE808403B20FFF7D9B80010024032
:101CB0002DE9F04F85B07B4C00260296A06940F0DC
:101CC0004000A061A06900F040000490A06940F0CD
:101CD0001000A061A06900F010000490A06940F01D
:101CE0000400A061A06900F004000490A06940F025
:101CF0000800A061A06900F008000490A06940F00D
:101D00002000A061A069684900F0200004904FF60F
:101D1000FE7008606549401C0860DFF89491C9F8BE
:101D20001400644908606449086060494FF48040C9
:101D3000091F0860DFF870A10127AAF1040ACAF898
:101D40000070DFF864B10325ABF1140B009769460E
:101D5000584601970395FEF7E7FE0E20CDE90005F2
:101D600069465846FEF7E0FE4FF4B660CDE900063E
:101D7000694658460296FEF7D7FE4FF410704FF0B2
:101D80000208CDE90008694603955846FEF7CCFEE7
:101D900046F20570DFF814B1CDE90007ABF1140B82
:101DA000694603955846FEF7BFFE49F63200CDE975
:101DB0000006694658460296FEF7B6FEC02000901F
:101DC00012200190694603955846FEF7ADFE0720A4
:101DD000CDE9000569464846FEF7A6FE4FF49E6031
:101DE000CDE90007694603954846FEF79DFE4EF68D
:101DF0000830CDE90006694648460296FEF794FE93
:101E0000A014CDE90008694603954846FEF78CFE0C
:101E10004FF69B70DFF89C90CDE90007A9F11409FB
:101E2000694603954846FEF77FFE4420CDE900064B
:101E3000694648460296FEF777FE2020CDE9000865
:101E4000694603954846FEF76FFE4320CDE900063C
:101E5000CDE90265184E6946143E3046FEF764FE31
:101E60003C20CDE90007694603953046FEF75CFE4D
:101E70004FF68070CDE90007694603953046FEF7BE
:101E800053FEA06940F00100A061A0690C4900F078
:101E90000100049009484860CAF8007005B0BDE828
:101EA000F08F00000010024014080140140C0140A3
:101EB00000100140141401401418014008000001F2
:101EC0000000014010B500220849094800F012FD49
:101ED0000849074800F01EFF0749054800F052FB7B
:101EE000BDE81040024800F07FBF0000A0000020C5
:101EF0002811002034020020D4000020FEE77047A3
:101F00000907090E002806DA00F00F0000F1E020B2
:101F100080F8141D704700F1E02080F8001470472D
:101F20002DE9FC5F04460020ADF80000ADF8040088
:101F300040F68F7B4FF006094FF0020A4FF480689D
:101F400084E1BDF8001011F00F0628D030F82610FB
:101F5000ADF80410BDF80410090475D530F826104A
:101F600001EA0B0120F8261004EB461595F8320221
:101F700005F50A750028206867D0297830F82120F7
:101F8000B0F8503052047CD50AEBC1015A1808EB66
:101F90004201415A8F05BF0D74D0EA88C7E0BDF8F1
:101FA0000010C9062CD4018848F60F721140018038
:101FB000206804F12805B0F850202B780AEBC30103
:101FC0000A4408EB4201405AC0F309006064E16B27
:101FD0000844E06300212046FEF799FF94F82400AE
:101FE0000028ADD0A8690028AAD194F8240021685F
:101FF00040F08000A1F84C00002084F8240025E186
:10200000018804F50A75ADF80410BDF8041009053F
:102010001CD5B0F850202B7809EBC3010A4408EB1B
:102020004201405A04F22C41C0F30903EB61AA8833
:10203000206801F0F2FA2068018801EA0B010180B2
:102040002046FFF764F901E195E054E0BDF8041083
:102050000904D4D5018801EA0B0101802068B0F899
:1020600050202B78464609EBC301114408EB41018F
:10207000405A83059B0DEB610BD0AA8869692068E3
:1020800001E04AE057E001F0C8FAE96968690844EC
:10209000686100212046FEF741FF2068B0F850102B
:1020A000891D06EB4101421828693E280CD9C0F36E
:1020B0004F11C00601D1491E89B24FF6FF7000EAE8
:1020C000812040F4004009E0C0F34F01C00701D077
:1020D000491C89B24FF6FF7000EA81201060206829
:1020E00001884BF68F72114081F4405148F2800212
:1020F00011430180AAE0B0F850202B7809EBC3010E
:102100000A4408EB4201415A8F05BF0D1FD0AA882F
:102110003B46696901F081FA19E009EBC1015A18DF
:1021200008EB4201415A8F05BF0D04D02A893B4676
:10213000696901F072FA2978206830F8212048F6A0
:102140008F731A4048F2C0031A4320F82120E8692F
:102150003844E8616869C2196A61AB6913B12869DA
:10216000B84204D929782046FEF7D8FE03E0297842
:102170002046FEF749FFBDF80400000666D520683A
:1021800004EB461530F8261048F60F72114020F87F
:10219000261095F8320028350028206812D02978BA
:1021A00030F82120B0F8503052061ED50AEBC1019C
:1021B0005A1808EB4201405A83059B0DEB6123D06E
:1021C000EA881DE0B0F850202B780AEBC3010A44DE
:1021D00008EB4201405A83059B0DEB6120D0AA8891
:1021E0006969206801F02FFA1AE009EBC1015A1859
:1021F00008EB4201405A83059B0DEB6104D02A890C
:102200006969206801F01FFA2978206830F82120D8
:1022100048F68F731A404CF280031A4320F82120AD
:102220002068B0F850202B780AEBC3010A4408EB71
:102230004201405AC0F30900E86169690A186A61FD
:102240002978AB69204663B1FEF720FF2068B0F81B
:102250004410ADF8001009043FF573AE0020BDE84E
:10226000FC9FFEF754FEF1E710B5502080F3118873
:10227000BFF34F8FBFF36F8F03F0AAFC18B104496F
:102280004FF080500860002080F3118810BD0000DE
:1022900004ED00E030B595B028216846FDF7E7FF72
:1022A00014210AA8FDF7E3FF18210FA8FDF7DFFFAF
:1022B00001210804CDE900100024029402250491B4
:1022C000CDE90750000109906846FFF74DFA0F204D
:1022D000CDE90A056802CDE90C4002210AA80E9456
:1022E000FFF7BCF8102014940F900FA8FFF742F8E6
:1022F00015B030BD0D48016841F001010160416831
:102300000B4A1140416001680A4A114001600168AE
:1023100021F480210160416821F4FE0141604FF405
:102320001F0181600449C00308607047001002402B
:102330000000FFF8FFFFF6FE08ED00E010B5074CC7
:102340002088002809D0FEF7E5FC6168884204D99E
:1023500003480068BDE81040004710BDA8030020F6
:10236000940200200148FFF7A6BB0000E00F002008
:10237000F0B502681C4D1D4E1D4FDFF878C01E4B96
:102380004FF0804EA84209D0984207D0704505D042
:10239000B04203D0B84201D0604503D122F07004AE
:1023A0004A682243A84209D0984207D0704505D018
:1023B000B04203D0B84201D0604503D122F440744A
:1023C000CA6822434C6922F08002144304608A6880
:1023D000C2620A688262A84201D0984201D10969AA
:1023E000016301214161F0BD002C01400004004067
:1023F00000080040000C004000340140FFF720BC02
:10240000D0F8180220B10021C0F814120846704715
:102410000220704770B50546D0F8184200F044FB22
:10242000C4F80C02D5F8180248B1D5F81C12D4F83B
:102430000402CA6804F503719047002070BD0220B1
:1024400070BD70B504460025812100F093FA01218A
:10245000204600F08FFA8221204600F08BFAD4F853
:10246000180250B1D4F81C0204F506744068804785
:10247000206800F0BFFD00202060284670BD10B528
:10248000D0E9864159B194F80002FF2807D08B6843
:1024900094F8012221469847FF2084F8000200208A
:1024A00010BD00000A210180004870475C01002037
:1024B0004321018000487047AC0100204321018086
:1024C00000487047680100204321018000487047A0
:1024D000F00100202DE9F0410546007C00264FF474
:1024E000007770B3402302228121284600F030FBA0
:1024F000402302220121284600F02AFB0823032260
:102500008221284600F024FB4FF4077000F074FD90
:10251000C5F81802F0B10446D5F81C0200688047DF
:102520000021C4F81412C4F81812287CD4F804222C
:1025300090B140230121284600F01DFB3046BDE844
:10254000F081FFE73B4602228121284600F000FB94
:102550003B46CEE70126F1E73B46EBE710B5D0F866
:10256000181269B1027C002AD1F8042205D0402358
:10257000012100F000FB002010BD4FF40073F7E7CD
:10258000022010BD02460220002902D00020C2F81D
:102590001C127047D0F81802C0F8041200207047CF
:1025A000D0F81802C0F81022C0F8081200207047B6
:1025B00070B50646D0F8185208780C4610F0600145
:1025C00021D0202927D1E288AAB10006607807D55A
:1025D000D6F81C128B6829469847E288294617E0EE
:1025E00085F80002A07985F80102E2882946304684
:1025F00000F050F80FE0D6F81C12607800228B68CB
:102600002146984707E060780A2804D1034901224F
:10261000304600F059F8002070BD0000580100203D
:1026200010B5D0F8181289B1D1F814220AB10120DE
:1026300010BD0122C1F81422B1F8102293B2D1F8D2
:102640000822812100F041FB002010BD022010BDB6
:1026500010B5D0F8142252689047002010BD1346E0
:1026600010B50A46002100F086FA002010BD13467E
:1026700010B50A46002100F028FB002010BD10B55F
:102680000446802100F0F8FA2046BDE81040002101
:1026900000F0F2BA10B50323C0F80821C0F8F431F5
:1026A000C0F80C2113460A46002100F064FA00200D
:1026B00010BD10B505210023C0F8F4111A461946C3
:1026C00000F059FA002010BD10B502238261C0F855
:1026D000F431C26113460A46002100F0F6FA0020E8
:1026E00010BD10B504210023C0F8F4111A46194694
:1026F00000F0EBFA002010BD10B50A46024903A015
:1027000000F0D4F8004810BD4C130020434443208F
:10271000436F6E66696700001220088000487047AA
:10272000C000002010B50A46024903A000F0BEF820
:10273000004810BD4C13002043444320496E74658B
:1027400072666163650000000420088000487047DD
:10275000BC00002010B50A46024903A000F0A6F80C
:10276000004810BD4C13002053544D6963726F65CF
:102770006C656374726F6E696373000010B50A460E
:10278000024903A000F092F8004810BD4C1300204D
:1027900053544D3332205669727475616C20436F07
:1027A0006D506F727400000010B50A46024903A014
:1027B00000F07CF8004810BD4C1300203030303061
:1027C000303030303030314100000000F8B5044680
:1027D00048880D46010A08294BD2DFE801F04A0477
:1027E00009174A4A4048D4F81012207C0A6832E09F
:1027F000207C02260028D4F8140205D0C16A68465D
:1028000088470146467041E0816AF8E7C0B2062871
:102810002FD2DFE800F003080D12171CD4F81012B5
:10282000207C4A6817E0D4F81012207C8A6812E0F5
:10283000D4F81012207CCA680DE0D4F81012207C65
:102840000A6908E0D4F81012207C4A6903E0D4F841
:102850001012207C8A6969469047014616E0207C68
:1028600038B9D4F81402416B68468847F5E7207CF4
:1028700020B129462046FFF702FFF8BDD4F8140224
:10288000016B68468847014607204870BDF8000084
:102890000028F2D0EA88002AEFD0824200D902460E
:1028A000ADF800202046FFF70FFFF8BD70B50023FC
:1028B00000281DD00446002502E06D1CEDB2641C0A
:1028C0002678002EF9D1022404EB45041480CC5460
:1028D0005B1C0322CA5400245B1C06E0CA545B1C28
:1028E000DAB28C54521CD3B2401C0278002AF5D1C3
:1028F00070BD000010B580B1D0F8143213B10023C0
:10290000C0F8143209B1C0F81012012180F8FC118E
:10291000027000F0CDF8002010BD05A000F0A8FE68
:1029200005A000F0A5FE0AA000F0A2FE022010BD46
:102930004552524F523A2000496E76616C696420CC
:102940004465766963652068616E646C65000000AB
:102950000A00000010B50024D0F82002FEF706FBA4
:1029600030B1012801D0022801D0022400E0012466
:10297000204610BD10B50024D0F82002FEF7D6FA8C
:1029800030B1012801D0022801D0022400E0012446
:10299000204610BD2DE9F0411746044641B1D4F858
:1029A000140242698AB394F8FC01032842D043E040
:1029B000D4F8F411002504F11400022933D1D0E930
:1029C00002639E4207D9F31A83609AB239462046C1
:1029D000FFF74DFE12E04068B0FBF3F103FB11017D
:1029E000A1B9984212D3D4F8F81188420ED200222D
:1029F00011462046FFF73BFEC4F8F85100231A4663
:102A00001946204600F0B7F80DE012E0D4F81402A1
:102A1000C16829B194F8FC01032801D120468847F8
:102A20002046FFF746FE94F80002012804D184F8FE
:102A3000005201E0204690470020BDE8F08170B5CB
:102A40001546044641B1D4F8140282693AB394F8A9
:102A5000FC01032824D025E0D4F8F41104F5827099
:102A600003291FD1D0E902318B420BD95B1A836055
:102A70000846834200D303469AB229462046FFF710
:102A8000EEFD0FE0D4F81402016929B194F8FC01BD
:102A9000032801D1204688472046FFF722FE01E0A7
:102AA00020469047002070BDD0F82002FEF782BA81
:102AB00010B504461D481E49C0F85C44C4F8200205
:102AC000016008214160022181600321C160002171
:102AD0008161C1610162FEF774FB08B1FDF78FFCF3
:102AE0000022D4F820021823114604F50874FEF7DA
:102AF000F3F95823002280212068FEF7EDF9C02366
:102B0000002281212068FEF7E7F94FF48873002244
:102B100001212068FEF7E0F94FF480730022822142
:102B20002068FEF7D9F9002010BD00003C1F0020EE
:102B3000005C00400A06D0F8200201F07F0100EBA3
:102B4000411002D590F82A00704790F82A02704789
:102B500070B51D4613460024D0F820022A46FEF721
:102B600031FA30B1012801D0022801D0022400E05E
:102B70000124204670BD10B50024D0F82002FEF7D5
:102B800043FA30B1012801D0022801D0022400E02C
:102B90000124204610BD70B5002204464023114692
:102BA000FFF7D6FF40252B46002280212046C4F89F
:102BB0001051FFF7CDFF0120256284F8FC01D4F805
:102BC000180228B1D4F814022179426820469047AF
:102BD000002070BD90F8FD1180F8FC1100207047B6
:102BE00010B590F8FC11032904D1D0F81412C9696A
:102BF00001B18847002010BD01740020704710B556
:102C00000024D0F82002FEF76EFB30B1012801D07D
:102C1000022801D0022400E00124204610BD70B536
:102C2000044600F50270054600F05FF80120C4F884
:102C3000F401B4F80E02C4F8F80194F8082212F076
:102C40001F000AD001280DD0022810D002F0800108
:102C5000204600F011F8002070BD2946204600F003
:102C6000C8F8F8E72946204600F0AAF9F3E7294614
:102C7000204600F037F9EEE710B50024D0F8200226
:102C8000FEF7D9F930B1012801D0022801D0022481
:102C900000E00124204610BD10B50024D0F8200229
:102CA000FEF73CFB30B1012801D0022801D00224FC
:102CB00000E00124204610BD90F8FC1180F8FD11C1
:102CC000042180F8FC110020704710B50024D0F8D2
:102CD0002002FEF7DBF930B1012801D0022801D033
:102CE000022400E00124204610BD0A7802704A78D0
:102CF00042708A78CB7802EB032242800A794B79C2
:102D000002EB032282808A79C97902EB0121C1801A
:102D10007047000010B50246002011B1C2F814122D
:102D200010BD05A000F0A4FC05A000F0A1FC0AA0C5
:102D300000F09EFC022010BD4552524F523A200036
:102D4000496E76616C696420436C617373206861BD
:102D50006E646C65000000000A00000010B5D0F839
:102D6000142202241AB11268904700B900242046A8
:102D700010BD000070B50D461A4E897804463170BA
:102D8000012928D894F8FC01022802D0032822D176
:102D900005E099B10320616084F8FC0109E091B17C
:102DA000606888420AD0C1B22046FFF751FC3178F2
:102DB00061602046FFF7D2FF02280CD02046BDE814
:102DC0007040FFF78EBC022084F8FC012046616051
:102DD000FFF73EFCF2E729462046BDE87040FFF7CA
:102DE0004EBC00005401002010B5FFF755FF002035
:102DF00010BD2DE9F04100274A7801263B460A2AFA
:102E000043D2DFE802F03C584251420805422A27EB
:102E1000FFF7DCFC63E004468888C8B9C888B8B905
:102E2000887800F07F0594F8FC01032810D084F81E
:102E3000FE5129462046FFF7E2FE2046FFF751FCEF
:102E40001DB1022084F8FC0149E084F8FC6146E0F1
:102E500020461AE0FFF78EFF41E0CA88012A14D10C
:102E600090F8FC21022A02D0032A0ED104E00122AC
:102E700000F10801836014E00122011D11E090F8C7
:102E8000FC21022A04D0032A02D0FFF7F8FB26E037
:102E9000C660D0F8041209B10321C160022200F11A
:102EA0000C01FFF711FC1AE004464888012816D1EE
:102EB000C4F804620BE0044690F8FC01022801D03B
:102EC0000328C5D14888012809D1C4F80432D4F8B0
:102ED00014028268204690472046FFF702FC3846DD
:102EE000BDE8F08170B50D460446287800260979C2
:102EF000C0F34110012806D06878A0B301281FD084
:102F000003283FD107E0D4F81402294682682046FE
:102F10009047002070BD94F8FC01022817D00328C8
:102F20002CD1688828B921B1802902D02046FFF72A
:102F3000A3FED4F81402294682682046904713E085
:102F400094F8FC01022802D0032817D103E0C9B18C
:102F500080291BD116E06888A0B9480604D0204615
:102F6000FFF7F8FCE5E703E02046FFF7BAFB09E0CE
:102F700094F8FC01022807D003280BD029462046EC
:102F8000FFF77DFB304670BD4806FBD02046FFF7BB
:102F900073FEF7E7080601F07F0004EB001501D58A
:102FA000143501E005F582752046FFF7C3FD00B139
:102FB00001202860022229462046FFF785FBE1E731
:102FC00070B5054690F8FC010C4603280DD1207918
:102FD00001280AD8D5F81402826828469047E0886C
:102FE00030B92846FFF77DFB02E02846FFF747FB94
:102FF000002070BD70470000004870471C1D002075
:103000002DE9F047CB780A7848F68F1433B1012BBD
:1030100067D0022B08D0032B0BD17FE030F8223091
:10302000234043F4007302E030F82230234020F8BC
:1030300022300A7830F8224048F68F731C4048F25C
:1030400080052C43144320F822408A7A48F6BF7941
:103050004FF0040C4BF68F7A48F2C0044CF2800714
:10306000F2B30A7830F8226048F280181E4046EA2F
:10307000080620F82260CA88B0F8506022F00102E9
:1030800091F8008006EBC80600EB4606C6F800245F
:103090000A89B0F8506022F0010291F800800CEB30
:1030A000C80C664400EB4606C6F800244A78002A9D
:1030B0000A7830F822604FEA46467DD0002E05DAC5
:1030C00030F822601E403E4320F822600A7830F833
:1030D0002260760608D530F822601E40264301E0C3
:1030E00028E021E020F822600A7830F822401C40D5
:1030F0003C4320F822400A7830F8223003EA0903E2
:103100002B4320F82230097830F8212002EA0A0205
:103110002A4320F821200020BDE8F08730F8223033
:10312000234043F4C06382E730F82230234043F465
:1031300080637CE74A78002A8A8822F001021BD04B
:10314000B0F850600F7806EBC70600EB4606C6F8ED
:1031500000240A7830F82260760605D530F822601F
:103160001E40264320F82260097830F8212002EA28
:10317000090282F02002CBE7B0F850400E780CEB49
:10318000C606344400EB4404C4F80024B0F85020D0
:103190000C78062606EBC404224400EB42060A69BA
:1031A0004FF6FF7C06F580663E2A0CD9C2F34F1419
:1031B000D20603D1641E00E021E0A4B20CEA84220E
:1031C00042F4004207E0C2F34F04D20701D0641C6E
:1031D000A4B20CEA842232600A7830F822406404F7
:1031E00005D530F822401C403C4320F822400978A5
:1031F00030F8212002EA0A0282F4405288E7002EC9
:1032000005DA30F822601E403E4320F822600A783A
:1032100030F82260760605D530F822601E4026433D
:1032200020F822600A7830F822601E40264320F8F9
:1032300022600A7830F8223003EA0A0383F440530C
:103240002B4320F82230097830F8212002EA0902C5
:103250005EE7002070472DE9F04391F80A804C7832
:103260000A7848F6BF794BF68F7748F2800548F226
:10327000C0064CF2800C48F68F73B8F1000F2AD0CC
:10328000002C30F822404FEA444449D0002C06DAA2
:1032900030F822401C4044EA0C0420F822400A780E
:1032A00030F82240640605D530F822401C403443F3
:1032B00020F822400A7830F822401C4044EA0C04EE
:1032C00020F822400A7830F8223003EA09032B4321
:1032D00020F822301AE0002C30F822400DD064068D
:1032E00005D530F822401C40344320F822400978AC
:1032F00030F8212002EA09020CE0640406D530F817
:1033000022401C4044EA0C0420F82240097830F89E
:1033100021203A402A4320F821200020BDE8F083F4
:10332000002C06DA30F822401C4044EA0C0420F855
:1033300022400A7830F82240640605D530F8224051
:103340001C40344320F822400A7830F822401C40C8
:10335000344320F822400A7830F822303B402B4397
:1033600020F82230C3E7002070470020704700B5E6
:103370000121A0F840100021A0F84010A0F844104E
:10338000A0F8501000F038F9002000BD30F8401FC0
:1033900021F43D410180002070470020704730B586
:1033A0004C780A78002C48F68F7530F8224048F2A5
:1033B000800312D0640607D530F822402C4048F232
:1033C000C0052C4320F82240097830F8212048F627
:1033D000BF74224082F0300211E0640407D530F857
:1033E00022402C404CF280052C4320F822400978E2
:1033F00030F821204BF68F74224082F440521A4359
:1034000020F82120002030BD10B50A7848F2800352
:1034100052B14978002930F8221010D048F6BF7414
:10342000214081F010010FE001884BF6BF7211407E
:1034300081F4805181F010011943018007E04BF6BF
:103440008F74214081F48051194320F8221000200C
:1034500010BD2DE9F0410D460646896995F801C079
:103460000023AA7A022728690C4648F28008BCF19A
:10347000010F05D0814252D90446081AA8614FE0D5
:10348000814203D90446081AA86100E0AB617AB111
:10349000287836F820104906B6F8501007EBC0001F
:1034A000084406EB4000C0F8004412D52A8911E018
:1034B000A3B2AA883046696900F0C5F8B6F8500092
:1034C000297807EBC101084406EB4000C0F800442E
:1034D0001CE0EA88A3B23046696900F0B4F8687865
:1034E00048F68F7210B1012807D00FE0287836F81F
:1034F0002010114048F2C00205E0287836F820106C
:1035000011404CF28002114326F82010287836F83A
:10351000201048F6BF72114081F0300165E0AB61C8
:1035200006234FF6FF711AB1BCF1000F19D054E019
:10353000B6F850002A783E2C03EBC202104406EB8A
:10354000400202F5806237D9C4F34F10E30630D051
:1035500001EA802040F4004001E001EA8020106090
:103560003BE0B6F850002A783E2C07EBC20210442C
:1035700006EB400202F580620BD9C4F34F105FEAFC
:10358000C46C01D1401E80B201EA802040F40040AA
:1035900008E0C4F34F005FEAC47C01D0401C80B255
:1035A00001EA8020106068780028C1D001280AD084
:1035B00013E0401E80B2CBE7C4F34F00E307CCD04A
:1035C000401C80B2C9E7B6F85000297807EBC1016A
:1035D000084406EB4000C0F80044287836F8201074
:1035E0004BF68F72114081F4405141EA080126F8F0
:1035F00020100020BDE8F08130F8401F41F43F4129
:1036000001800020704700000148FDF754BD000014
:103610003C1F0020B0F8440070475B1C00EB4200E8
:103620005B0800F5806005D030F8042B21F8022BF0
:103630005B1EF9D170470020704711B98021A0F8B6
:103640004C100020704710B55B1C00EB42005B087B
:1036500000F5806009D011F8012B5B1E11F8014BB9
:1036600042EA042220F8042BF5D110BDFEE7000049
:103670000FB4054B10B503A9044A029800F018F8DE
:1036800010BC5DF814FB000071400008D00300205E
:1036900002E008C8121F08C1002AFAD1704770471B
:1036A000002001E001C1121F002AFBD17047000079
:1036B0002DE9FF4F8DB00F460546002606E0252870
:1036C0000BD0DDE90F1290476D1C761C287800287E
:1036D000F5D111B03046BDE8F08F0024A246A146D6
:1036E0000122E94900E0044315F8013F203B02FABA
:1036F00003F00842F7D128782A2810D06FF02F0263
:103700002878A0F13001092914D80AEB8A0102EBCC
:10371000410144F0020400EB010A6D1CF0E701CF07
:103720005FEA000A03D544F40054CAF1000A44F0E9
:1037300002046D1C28782E2817D115F8010F44F0CB
:1037400004042A280ED06FF02F022878A0F130014F
:1037500009290AD809EB890102EB410100EB0109B3
:103760006D1CF2E757F8049B6D1C28786C280FD06D
:1037700006DC4C2817D068280DD06A2814D104E044
:10378000742810D07A280FD10DE044F400140AE018
:1037900044F4801401E044F440146978814202D179
:1037A00004F580146D1C6D1C28786E281ED00CDC6E
:1037B000632830D004DC00288BD0582811D19FE03A
:1037C000642867D069280CD164E073282DD004DC0C
:1037D0006F2872D0702804D194E075286ED07828B4
:1037E0006DD0DDE90F129047761C4BE1C4F3025017
:1037F000022806D0032809D0042801CF09D006608A
:1038000040E101CFF117C0E900613BE101CF068043
:1038100038E1067036E117F8040B8DF8000000203F
:103820008DF80100EB46012003E057F804BB4FF090
:10383000FF3061074FF0000102D40DE008F10101F3
:10384000884649450FDA8045F8DB1BF80810002947
:10385000F4D108E008F1010188468142FADB1BF847
:1038600008100029F6D1DDE90F23AAEB08008146F4
:10387000214600F031F9304400EB080604E0DDE9B0
:103880000F121BF8010B9047B8F10108F7D221463F
:103890004846F2E00A21C4F302524FF0000B0891AF
:1038A000022A04D001CFC117032A09D00AE0FF1D64
:1038B00027F00707F7E8020108E02CE01EE01FE010
:1038C00000B2C117042A01D140B2C117021E71F122
:1038D000000206DA0023D0EB030063EB01012D2286
:1038E00002E0220504D52B228DF82420012203E0DA
:1038F000E20701D02022F7E7904653E00A210BE0CF
:10390000102109E010214FF0000B44F004044FF0A7
:103910000809089103E008214FF0000B0891C4F357
:103920000252022A04D001CF0021032A06D006E069
:10393000FF1D27F00707F7E8020103E080B2042A21
:1039400000D1C0B24FF0000822072BD52A78702A88
:1039500007D0DDF820C08CF0100C5CEA0B0C05D011
:103960000EE040228DF82420012208E050EA0103F5
:1039700006D030238DF824308DF825200222904681
:10398000089B83F0080353EA0B030BD150EA0102B2
:1039900001D1620706D530228DF824204FF00108AE
:1039A000A9F101092A78582A04D038A20B9208AA52
:1039B0000A920BE03AA2F9E75B46089AFCF762FC30
:1039C0000B9B9B5C0A9A521E0A92137050EA0102EA
:1039D000F2D10A98ADEB000000F1200B600702D590
:1039E00024F4803401E04FF00109D94502DDA9EB50
:1039F0000B0000E0002000EB0B0141440890AAEB13
:103A0000010AE00306D4DDE90F232146504600F009
:103A100063F806444FF0000908E009A911F809000D
:103A2000DDE90F12904709F10109761CC145F4DB6D
:103A3000E0030CD5DDE90F232146504600F04CF899
:103A4000064404E0DDE90F1230209047761C089907
:103A5000481E08900029F5DC08E00A980A990078C9
:103A6000491C0A91DDE90F129047761CBBF1000159
:103A7000ABF1010BF1DC21465046DDE90F2300F0EC
:103A800019F806446D1C21E6092801003031323353
:103A9000343536373839616263646566000000008A
:103AA0003031323334353637383941424344454674
:103AB000000000002DE9F041044600251E4617468F
:103AC000880404D405E039462020B0476D1C641EEC
:103AD000F9D52846BDE8F0812DE9F04104460025DE
:103AE0001E469046C80301D5302700E020278804F1
:103AF00004D505E041463846B0476D1C641EF9D533
:103B00002846BDE8F08170B500255B1E12E0EC1878
:103B1000640804EB840602EB8606B688864203D16D
:103B20004FF000000C6070BD02D9A4F1010301E068
:103B300004F101059D42EAD94FF0FF3070BD00004D
:103B400000B511488BB00F49026900924269019299
:103B500082690292C2690392026A0492426A0592E1
:103B6000826A0692C26A0792026B0892426B0992BD
:103B7000806B0A900B226846091D00F09FFE0BB077
:103B800000BD00005C1000202400002010B5094B8F
:103B90003C290DD8002204E010F8014B03F8014B3A
:103BA000521C8A42F8D304480221C16001214162BB
:103BB00010BD0000201000202400002010B504A03B
:103BC000FFF756FD0C48006801F01AFC002010BDFC
:103BD0006D73672070726F6365737320636F6D70B0
:103BE0006C657465642C2073656E642072657370F7
:103BF0006F6E73650D0A00000400002070B5064D5D
:103C000000242878012802D00624204670BD2869A7
:103C1000804700202870F8E76C02002070B50C4641
:103C200009880026052923D1417805790A0281787F
:103C300011436A1E7C2A1BD800222280032200F82E
:103C4000012B22880023521C22806A0000F8012BDD
:103C50002288521C22802A4600F0F8F918B101F09F
:103C600079F8064605E0208800EB4500208000E05A
:103C70000326304670BD2DE9F04104460888002730
:103C80000D460A2842D3607826790102A078227A6C
:103C90000843401C1FFA80F8E07846EA0026607965
:103CA000731E0102A0790843401C81B2E0797C2B8D
:103CB00042EA0022607A28D83AB3792A25D8B0EBB4
:103CC000420F22D1012304F10A0000F0BFF998B994
:103CD00000212980172121702988601C491C298016
:103CE000710000F8011B29880023491C29803246F5
:103CF000414600F0ABF918B101F02CF8074605E099
:103D0000288800EB4600288000E003273846BDE8FD
:103D1000F08110B509880024052902D0032420462B
:103D200010BD417801230A028178C01C1143491C4F
:103D300089B21A4600F08AF90028F0D001F00AF89A
:103D40000446ECE770B50D460988002406291BD30C
:103D500041780A0281781143C278130202791A432A
:103D60004379561E772E0FD85606360E9E420BD13B
:103D70000123801D00F06AF918B100F0EBFF044642
:103D800003E00520288000E00324204670BD0000E9
:103D90002DE9F0411C46069B1746064629B1F72936
:103DA00003D8134D084629710EB102241BE01149B6
:103DB0002961114969611149E9601149A96100212D
:103DC000E96110492962104969621049A9622246D5
:103DD000394600F07DF8040005D101F09FFD28B1BF
:103DE0006E71012028702046BDE8F0810324FAE7B7
:103DF0006C020020FD3F000829400008793F0008C0
:103E0000213F0008CD590008595A0008315A0008CE
:103E100038B52D4C207808B1062038BD684601F031
:103E20006FFD01284ED19DF80000E8B3012802D0B3
:103E3000022847D111E0244AA369921D911CC81F92
:103E4000984788BB60782179884202D008B1F7286A
:103E500038D1022001F064FD34E0A06801211A4B42
:103E60000578A570E17000212C3313F8312062B180
:103E7000AA4207D103EBC1014A681349891D904743
:103E8000E07002E0491C2029EFDB607860B10F4848
:103E9000007848B9E27882B10020E080A07840F054
:103EA0008001A068017000E00CE0E188491C89B243
:103EB000E1804254E088401CE080D4E90213E288AB
:103EC00020799847002038BD6C020020B9030020FB
:103ED00070B5002415460E46502080F31188BFF3BC
:103EE0004F8FBFF36F8F08222946304601F02CFD1B
:103EF00001280DD1B5F5964F01D9232003E00749DC
:103F00006800B1FBF0F080B201F05EFD012800D046
:103F10000324002080F31188204670BDA07F170085
:103F20002DE9F0410646002415468846502080F3CE
:103F30001188BFF34F8FBFF36F8F0D4FB8880428E0
:103F400004D3B9880B4801F02FF930B105240020C3
:103F500080F311882046BDE8F08106480078307073
:103F6000B888C01E28800348401CC8F80000EEE74F
:103F700098030020B030002070B503460025502083
:103F800080F31188BFF34F8FBFF36F8F194C6078A8
:103F9000012805D00525002080F31188284670BD32
:103FA000491E0126A160084666800B706188114495
:103FB0006180618801F0F8F8014660880E4A1318A4
:103FC000401C608019706088090A0244401C6080AF
:103FD000117026700121002001F052F9A0680078CC
:103FE00001F0ECFCA068401CA0606088401E60806E
:103FF000D1E7000098030020B030002010B5502019
:1040000080F31188BFF34F8FBFF36F8F05480024F3
:1040100044702146012001F033F901F04DF984F399
:10402000118810BD9803002010B5502080F311882E
:10403000BFF34F8FBFF36F8F0021084601F020F9C7
:1040400001F032F9002080F3118810BD1BB1012B63
:1040500003D00220704700F021BF01F04FBB0A4699
:10406000811F902008704A7002220120FFF784BF50
:1040700008490968C90706D0064980390968CA078E
:104080004FF0604101D1704700BF0A68002AFBD0A1
:1040900008707047800E00E0094A517861B1D17A0A
:1040A00003688B4200D00160907A012802D0002181
:1040B00051707047FCF7A6B90A210160D1727047B0
:1040C000B803002002488188024800F01BB80000B5
:1040D00098030020B0300020094808B50078002877
:1040E0000CD1684601F00CFC012807D19DF80000B6
:1040F000002803D0012801D1FFF7E4FF08BD00002C
:104100006C0200202DE9F0470A4601783C4C4FF044
:10411000010A042901D1012A0ED090F8043490F844
:10412000035403EB05231FFA83F8A2F58063053BD4
:1041300063D1022961D107E084F806A0A0780528A0
:1041400045D20520A07042E0C11C4FF480694E4664
:10415000002241F221074FF6FF7C10E011F8013BED
:1041600082EA03220023150403D587EA420292B2B1
:1041700001E00CEA42025B1CDBB2082BF3D3761E93
:10418000ECD283784178DB43DBB2994226D1E578E3
:104190006B1EA94202D0DEB2B1421FD142451DD1F1
:1041A00000262672A94209D1C11C4A461548FCF7CF
:1041B00045F884F804A00320E0720BE0994209D18D
:1041C0000121002001F05CF8062001F0F7FB01203E
:1041D000BDE8F0876D1CE570A681F8E7207A012123
:1041E000401C2072002001F04BF8152001F0E6FB86
:1041F000207A032801D900F075FF0020E8E70000CD
:10420000B8030020B634002070B5124C01250026FA
:10421000657021698AB2090C602902D009B10821B0
:1042200004E0012A06D0022A0BD00721FFF717FF6E
:10423000A6720DE0811FA57205220120FFF79CFEEA
:1042400004E00221A1720721FFF709FFA670E570C3
:10425000002070BDB80300202DE9F047914DDFF834
:10426000488205F11C062B6830467361426A98F853
:10427000001098F8010000274FF0050A4FF0F909E7
:10428000112B6ED2DFE803F009929292926292961D
:1042900092A1B0CA92FE2F87F400834803213C30DC
:1042A000017021214170342141803C21FCF790F8BC
:1042B000706A00287AD0776298F80010032903D139
:1042C00098F8010001280AD078A0FFF7D1F9C6F8C4
:1042D0003490BDE8F0472121032000F03BBF0E20C1
:1042E00028607BA0C0E081A0FFF7C2F9FCF708FCC2
:1042F000040004D07EA0FFF7BBF9FB2080E07DA086
:10430000FFF7B6F9DFF89C8108F10C08A8F1040169
:10431000D8F80800B061081DFCF73EFB040004D08B
:1043200075A0FFF7A5F9FD206AE074A0FFF7A0F9DA
:10433000D8F8080030620221032000F00BFF08B11A
:104340006FA091E06FA0C5F800A08DE0002A2DD0ED
:104350007762032903D1032804D0052828D073A04D
:104360003BE023E001F08EFA040009D0062C0FD0C8
:10437000FE207063D8F804106DA0FFF779F956E0BD
:104380000F202860D8F8041076A0FFF771F902E03A
:10439000B06A401CB0627EA0FFF76AF904210320D6
:1043A00000F0D8FE002801D1C5F800A0BDE8F087D4
:1043B000072031E00621032000F0CCFE0028F5D1D3
:1043C0007AA0FFF755F9092026E0002AEED077629F
:1043D000032901D1072803D034A0FFF749F924E0CD
:1043E0000A20286077A03FE07D48006801F058F976
:1043F00040B17CA0FFF73CF9F06A401CF062FA2063
:10440000706314E00821032000F0A4FE0028CDD141
:104410007DA0FFF72DF90B202860C7E7002AC5D043
:104420007762032901D10B281BD0C6F8349077613D
:10443000B4632F60746BFFF783FBE1B2032000F0DD
:1044400089FE0028F9D1642000F03EFA09210320FA
:1044500000F080FE0028F0D1BDE8F047642000F0B5
:1044600033BA1020286073A0BDE8F047FFF700B909
:1044700076A0FFF7FDF8FFF763FB0C21032000F0A7
:1044800069FE00E003E0002890D10D20C4E764201D
:1044900000F01AFA72A0FFF7EBF800F0F3F877A03B
:1044A000E2E7000008000020201000204572726F33
:1044B000723A207265636569766564206D65737311
:1044C000616765206D69736D617463680D0A000032
:1044D00053454E445F464C4153485F555044415408
:1044E000455F434F4D4D414E440D0A00310D0A00CA
:1044F000360D0A00320D0A00350D0A00330D0A0090
:10450000340D0A0041524D5F5245434549564544DA
:104510005F46555F434F4D4D454E445F45524153B5
:10452000455F414C4C5F4F4B0D0A0000370D0A00B0
:104530004552524F523A20777269746520746F2049
:10454000666C6173682C20616464726573732069A2
:1045500073202523303878206572726F72210D0A1E
:104560000000000053454E445F464C4153485550AF
:10457000444154455F444154412C20616464726558
:10458000737320697320307825780D0A00000000CD
:1045900041524D5F444154415F57524954455F4336
:1045A0004F4D504C4554450D0A000000464C4153B8
:1045B000485550444154455F434F4D504C45544538
:1045C0000D0A000053454E445F464C4153485F4935
:1045D0004D4147455F5645524946590D0A00000076
:1045E00000D40008526563656976656420466C6195
:1045F000736820496D616765205665726966792028
:104600004572726F720D0A00526563656976656462
:1046100020466C61736820496D616765205665723C
:10462000696679204E6F2050726F626C656D0D0A5D
:104630000000000053454E445F52455354415254CC
:104640005F434F4D4D414E440D0A000041524D5FB6
:10465000524553544152545F4E4F570D0A000000CB
:104660004A554D505F544F5F555345525F4150502E
:104670004C49434154494F4E0D0A0000776861741C
:104680000D0A000010B51B48006801F009F8401C35
:104690002FD0194C206819490840B0F1005F25D18E
:1046A00017490820086017A0FEF7E2FF1D4841687F
:1046B0001DA0FEF7DDFF23A0FEF7DAFF11A0FEF735
:1046C000D7FF2848FBF7B0FFFCF77CFF72B64FF02E
:1046D000E0214FF0FF30C1F88001C1F88401C1F83A
:1046E0008801226861680020FBF72EFD1E49012029
:1046F000086010BD00D4000800D000080000FE2FA4
:10470000141401402A2A2A2A2A2A2A2A2A2A2A2A48
:104710002A2A2A2A2A2A2A2A2A2A2A2A2A2A0D0A36
:104720000000000008000020626F6F74206C6F6151
:104730006465722076657273696F6E2069732025D7
:10474000640D0A005265616479204A756D702074A9
:104750006F206170706C69636174696F6E210D0AFE
:104760000000000000093D00100C01408EB0FCF775
:10477000DFFAFDF78FFDFDF79BFAFDF763FAFBF714
:1047800027FFFBF713FFFFF77DFF1C220B4968464D
:10479000FBF754FD0021684600F0A2F8084C0749D9
:1047A0001C2220601C3107A8FBF748FD002107A848
:1047B00000F096F8606000F08EF8FEE75C5D00089F
:1047C0000000002001460020842900D0C81C70474A
:1047D00070B5054600F012FC17490022521C0888EB
:1047E0001E2A40BA21F8020BF8DB134C13A06278A2
:1047F0002178FEF73DFF608840BA6080A088A179EB
:1048000040BA000440EA0120E17908431B49606096
:10481000012048621A48006800F066FE19480178D5
:1048200005F8031D417869704278017816A0FEF7FB
:104830001FFF002070BD0000201000207374617203
:104840007420696E766F6B6520666C617368207585
:104850007067726164653A206D736720636C617381
:10486000732069733A2025642C206D736720696476
:104870002069733A2025640A00000000240000200B
:10488000040000205C10002072657475726E207345
:104890007461747573206D736720636C617373202A
:1048A00069733A2025642C206D7367206964206940
:1048B000733A20307825780A0000000001E008C82B
:1048C00008C1521EFBD2704710B500B9012000F09C
:1048D00071FD002010BD10B500F0D0FD002010BD0E
:1048E0007FB50D4604464169B0F9080081B1A16960
:1048F00071B1FFF767FFD4E905128DE80700D4E92D
:1049000000102B46226901F038F9039004B070BD05
:10491000FFF758FF03A9CDE90001208A2B4682B298
:10492000D4E9001001F0FCF8012801D00020EDE7E7
:104930000398EBE7F8B51E4EADF800100322327075
:1049400072701D4F70601B48BA8910440A460146B8
:1049500006F108000546FBF771FCBDF800200021B8
:104960006B460C46A2F1030C0DE0285D1A2808D115
:10497000281990F801E0BEF11A0F02D180781A28A8
:1049800008D0641CE4B26445EFDB0846BDF80010B3
:104990007180F8BDA01C1880111A2819FBF767FC5C
:1049A000012078710CB12146EFE7FF21EDE700000F
:1049B00020100020B6340020B80300202DE9F0417B
:1049C000184E0F460446F5683068001D00F002FCE2
:1049D00038B9306890F82C10012088403169814343
:1049E0003161601C07D137B13168BDE8F0410E4834
:1049F000091D00F039BC30682C44AC424460316879
:104A000005D2B06BBDE8F041091D00F015BC706B1C
:104A1000091D00F011FCB06A844200D2B462BDE806
:104A2000F0810000F40000209C2400202DE9F041DA
:104A3000054600F04DFC2E4EB068401CB06030685A
:104A40002C4F10B1706940B32DE03560B06801287B
:104A500029D1002404EB840007EB800000F0DEFB8A
:104A6000641C072CF6D323488C3000F0D7FB214878
:104A7000A03000F0D3FB1F48B43000F0CFFB1D483E
:104A8000C83000F0CBFB1B48DC3000F0C7FB1948F6
:104A90008C3070631430B06305E03068E96AC06A36
:104AA000884200D83560706A0121401C7062E86A53
:104AB000326981401143316100EB800007EB8000D7
:104AC000291D00F0D1FB00F023FC706900280CD0F8
:104AD0003068E96AC06A884207D207494FF08050BF
:104AE0000860BFF34F8FBFF36F8FBDE8F081000008
:104AF000F4000020C023002004ED00E070B5124E49
:104B0000124D1CE000F048FD306820B1002401F097
:104B1000C3F8A4B901E00124F9E700F0D9FBF0687B
:104B2000C468201D00F056FBA868401EA860686895
:104B3000401E686000F0ECFB204600F009F8686851
:104B40000028DFD170BD000088240020F400002080
:104B500010B5044690F8510058B101280CD0022835
:104B60000FD0502080F31188BFF34F8FBFF36F8FAA
:104B7000FEE7206B00F0E0FB2046BDE8104000F0AF
:104B8000DBBB10BD10484FF44061420706D0C01D8A
:104B90000D4920F00700411AC1F540610B4A00237E
:104BA0000144C2E900030839103A21F007011160FD
:104BB0004B600B600B1AC0E9001393604FF000408C
:104BC0005360D06070470000B024002040010020F6
:104BD000084E4FF08054084DFFF790FF30680128D1
:104BE00004D92C60BFF34F8FBFF36F8F00F00EFB23
:104BF000F2E70000C023002004ED00E02DE9F047BB
:104C00009A46DDE9098481466FF00303206B03EBCC
:104C100082021044089D20F00706700707D050203C
:104C200080F31188BFF34F8FBFF36F8FFEE7231818
:104C30000A5C83F834200A5C12B1401C1028F6D3B9
:104C4000002784F84370072D00D30625E562C4E9E8
:104C50001157201D00F0EDFA04F1180000F0E9FAF8
:104C60002461C5F107006462A061E76484F85070B4
:104C700052464946304600F0FFF82060B8F1000F78
:104C800001D0C8F80040BDE8F087000030B51149F8
:104C900000E011460A688242FBD34B685C188442EC
:104CA00003D1406818444860084643681C18944281
:104CB00009D1084C103C2468A24209D052681A4419
:104CC00042600A6812680260814200D0086030BD0C
:104CD0000460F9E7400100200648416B096829B1EA
:104CE000416BC968C9684968816270474FF0FF31FC
:104CF000FAE70000F400002008484068401C4FF02C
:104D0000500080F3118804D0BFF34F8FBFF36F8F33
:104D1000FEE7BFF34F8FBFF36F8FFEE74801002020
:104D2000002150B10A4B42699A420FD1806AA3F127
:104D3000280290420AD040B108E0502080F3118848
:104D4000BFF34F8FBFF36F8FFEE701210846704717
:104D50009C240020132821D2DFE800F00A0E202036
:104D6000202020140C0E1020121416181A1C1E00DD
:104D700000207047012070470220704703207047D1
:104D800005207047062070470720704708207047AD
:104D9000092070470A2070470B2070470420704795
:104DA0002DE9F0410546002600F0F6FB314F38684A
:104DB00008B9FFF7E7FEF86805424BD1C5B30835DF
:104DC00068070ED005F00700C0F108000544680729
:104DD00007D0502080F31188BFF34F8FBFF36F8F40
:104DE000FEE72DB37868854234D822491031084651
:104DF000046801E0214604466068A84202D22068A7
:104E00000028F7D13868844224D00E6820680860F2
:104E100060680836411B10290FD96019420708D075
:104E2000502080F31188BFF34F8FBFF36F8FFEE7E1
:104E300010E041606560FFF729FF61687868401AFB
:104E40007860BA68904200D2B860F86801430020E8
:104E5000C4E9000100F020FF700707D0502080F364
:104E60001188BFF34F8FBFF36F8FFEE73046BDE869
:104E7000F08100003001002010B5031F4FF0807456
:104E80001C601B1F21F001011960191F024B0B60F0
:104E9000143940380A6010BDF94C00082DE9F74F6D
:104EA00082B00021074604988A46894600918028EE
:104EB00001D9112041E0024631A00399FEF7D8FB49
:104EC0003F48404A01A903680398FEF71CFE08B159
:104ED000092032E03CA00399FEF7CAFB0025DDF86B
:104EE00004803FE0A5EB0901514501DA1DB118E04E
:104EF0000DB108F1010832490968884501D3042041
:104F00001BE009EB0A002F4B1FFA80F908EB880120
:104F100003EB810013F82160B0F802A090F801B013
:104F20008468300602D5A41CBF1C1AE006F03F06B8
:104F3000012E06D0032E04D00320009005B0BDE85A
:104F4000F08F21882AA0FEF793FBBBF1000F0ED053
:104F50002188B1FBFBF0010A07F8011BA41C07F82C
:104F6000010B6D1C04988542BCDB0098E6E72088A5
:104F70004FF6FF7100EB800001EA4000EBE7000014
:104F80000D0A0D0A6D6F646275732072656164208D
:104F9000646174612C207265676973746572206145
:104FA0006464722069733A203078253034580D0AD1
:104FB0006E756D2069733A2025640D0A00000000AB
:104FC00018660008BC5D0008626567696E2073653D
:104FD0006E6420646174613A2073656E642061645C
:104FE00064722069733A203078253034780D0A00D5
:104FF000307825303478202000000000014901205D
:10500000C86070472400002008B5002401224FF436
:105010001653114620460094FEF7BAFEFEF7EEFD49
:105020001C4D1D4A0C210020A1EB00062B5C02EB5D
:1050300046061B09092B01D8303300E0373306F848
:10504000023C2B5CA1EB000603F00F03092B02EBE3
:10505000460601D8303300E03733401CC0B206F8B2
:10506000013C8842E0D302F811400C4C0C4D0D4E2F
:10507000207810B12878012808D0FEF7C9FE094829
:10508000FFF70AF83068FFF71FFCF1E7FFF724F895
:10509000F5E70000E8F7FF1F6E000020B9030020CD
:1050A000C20300209C0000200C4908200860FCF787
:1050B00009FF0B4E00244FF4FA65B4FBF5F005FB35
:1050C000104018B9306880F001003060FFF7C4F874
:1050D0000120FFF7F9FB641CEFE70000101401400A
:1050E0000C0C014070B50D4C002501216570A572B6
:1050F000284600F0C5F8182000F060FC01210020CF
:1051000000F0BEF8182000F059FC0121002000F04A
:10511000B7F8182000F052FCA57070BDB80300204D
:1051200010B50248FEF7A4FA002010BD4C68000834
:10513000074943F69822C889401C80B2C881C97AC1
:10514000B2FBF1F1814201D2FFF7CCBF7047000002
:10515000B8030020114A10B51070517034205080EF
:105160000F4801700F48C06802280CD001284FF08A
:105170003C0110460DD0FBF72BF93C210748FEF708
:105180001DFD002010BDBDE810403C210348FBF789
:105190001FB9BDE81040FEF711BD00005C100020F3
:1051A000B80300202400002070B5094DFF231A46E3
:1051B00005F5807605E010F8014B54402A5D5A4011
:1051C000335D491E89B2F6D242EA032070BD000069
:1051D00034660008D0E9013201699A60D0E9012300
:1051E0005A604A68824201D182684A6000220261A4
:1051F0000868401E08607047034B036003F15400C9
:1052000008608020106070478C0D002002494AF62B
:10521000AA200860704700000030004000F108013B
:105220004FF0FF32C0E90112C1600161002101604D
:10523000704700210161704730B50C68621C02D0D4
:1052400000F1080202E0026904E01A4653681D6892
:10525000A542FAD953684B6099608A605160086131
:105260000168491C016030BD42684A6093688B60E8
:1052700093685960916008610168491C016070473A
:10528000054B022208B11A6070470029FBD0024882
:10529000001F0260704700001414014001490870AB
:1052A00070470000B40300200248002101804160E3
:1052B00070470000A803002010B5044C0120208096
:1052C000FBF728FD61880844606010BDA80300203A
:1052D000502080F31188BFF34F8FBFF36F8F0A49BF
:1052E0004868401C486001280CD10848006810F04C
:1052F000FF0F07D0502080F31188BFF34F8FBFF30B
:105300006F8FFEE7704700004801002004ED00E0C9
:105310000849486828B1401E486001D180F31188CF
:105320007047502080F31188BFF34F8FBFF36F8F0A
:10533000FEE700004801002070B5002827D0144D7A
:10534000A0F108046068E968084207D1502080F3A2
:105350001188BFF34F8FBFF36F8FFEE722683AB11A
:10536000502080F31188BFF34F8FBFF36F8FFEE79C
:105370008843606000F010F96068696808446860FC
:105380002046FFF783FCBDE8704000F085BC70BD8F
:105390003001002006484FF47A710068B0FBF1F14B
:1053A0004FF0E020491E4161072101617047000074
:1053B000F000002010B5020014D00F48006B38B187
:1053C000502080F31188BFF34F8FBFF36F8FFEE73C
:1053D00000F0E2F800211046FFF7F0FA00F05CFC64
:1053E000002807D105494FF080500860BFF34F8F68
:1053F000BFF36F8F10BD0000F400002004ED00E04B
:1054000070B504002BD01A4D286884422FD0FFF7C6
:105410005FFF2046FFF784FCE8B1201DFFF7DAFEAE
:10542000E06A01212A69814011432961114900EB99
:10543000800001EB8000211DFFF716FFE06A29685C
:10544000C96A884207D30C494FF080500860BFF307
:105450004F8FBFF36F8FBDE87040FFF759BF5020EB
:1054600080F31188BFF34F8FBFF36F8FFEE770BDDE
:10547000F4000020C023002004ED00E010B586B049
:105480000024039405AA04A903A80494FFF7B4FE1A
:10549000DDE903010094CDE9011000230EA11048BD
:1054A000059A00F06AFB0F490028C86211D050200D
:1054B00080F31188BFF34F8FBFF36F8F4FF0FF3032
:1054C000886201204861CC6006B0BDE8104000F061
:1054D000EBBA06B010BD000049444C450000000086
:1054E000D14B0008F400002070B50446FFF7F0FE31
:1054F000264D04B92C68201DFFF76CFE58B9E06AF0
:10550000234A00EB800152F8211021B9012181408A
:10551000286988432861A06A18B104F11800FFF7D0
:1055200059FE1B48211DDC30FFF79EFEFFF7F0FE01
:10553000686928B1FFF7CCFEFFF7CEFBFFF7E8FE66
:105540002868844213D1686990B1286B38B1502023
:1055500080F31188BFF34F8FBFF36F8FFEE70D49C4
:105560004FF080500860BFF34F8FBFF36F8F70BD57
:105570000748A968DC300068884202D10020286012
:1055800070BDBDE8704000F00FB80000F4000020CE
:10559000C023002004ED00E00248016B491C0163B8
:1055A00070470000F4000020144A106B10B1012075
:1055B000D06170470020D06110691149B0FA80F0C5
:1055C000C0F11F0000EB800051F820306BB101EBFF
:1055D000800000F10803416849684160994201D1A7
:1055E00049684160C86810607047502080F3118896
:1055F000BFF34F8FBFF36F8FFEE70000F400002072
:10560000C02300202DE9F041214E356820480C30A0
:1056100004681F48143007680120FFF73FFE15F0AB
:105620000F000AD1A90608D5A10606D519480068B9
:105630008047306820F0200006E0290607D52106C3
:1056400005D5306820F080003060BDE8F081690643
:1056500008D5610606D5104800688047306820F0FC
:105660004000F1E770B107F0010004F490710843C5
:1056700008D00A490888401C088030680448001D8A
:105680000068E2E7BDE8F0410020FFF707BE000038
:10569000003801408C02002090020020A40300206A
:1056A000F0B5134988421FD0124A4FF44C33811889
:1056B000151799421AD201688C189C4216D2446878
:1056C0000E1932449A4211D2002386680A4FA40868
:1056D0001A46BE420AD102E040C9521C3344A242DB
:1056E000FAD30069984201D10020F0BD2846F0BDF0
:1056F000214365870030FFF7EDFE0DD02DE9F74F10
:1057000084B04FF000090698049F0C46CB46CA4669
:10571000802801D911200CE002463AA0FDF7A8FF2D
:105720004848494A02A903682046FEF7ECF910B13F
:105730000920814661E0214644A0FDF799FF00253C
:10574000DDF808803EE0A5EB0A01594501DA1DB1FC
:1057500018E00DB108F101083A490968884501D3FC
:1057600004201BE00AEB0B00374A1FFA80FA08EB13
:10577000880102EB810012F82160B0F802B0846861
:1057800040780190300602D5A41CBF1C19E006F039
:105790003F06022E04D0032E02D00320814614E0DF
:1057A00017F8010B17F8011B41EA002132A0009104
:1057B000FDF75EFF019858B1DDE90001484324F888
:1057C000020B6D1C06988542BDDB1F4D029C12E04A
:1057D00000980A21B0FBF1F0F1E704EB840005EB3F
:1057E0008000026932B1069904989047002801DAD6
:1057F0004FF00A09641C4445EFD907B04846BDE89C
:10580000F08F00000D0A0D0A6D6F646275732077CA
:105810007269746520646174612C207265676973B4
:1058200074657220616464722069733A203078254F
:105830003034580D0A6E756D2069733A2025640D59
:105840000A00000018660008BC5D00086265676910
:105850006E20777269746520646174613A20777292
:1058600069746520616464722069733A2030782518
:105870003034780D0A00000030782530347820204C
:10588000000000002DE9F041194846681948864299
:1058900005D21948864202D90120BDE8F081174A95
:1058A0001348116A4088B14209D03044884204D17B
:1058B000906A401C90620620EFE70220EDE70C4C56
:1058C0000144C2E907610834870800250BE0002382
:1058D000314602202268FBF7D1F808B10320DCE74B
:1058E000241D6D1C361DBD42F1DB0020D5E70000F4
:1058F0002010002000D00008C4FF0308240000206E
:105900000549024600204B88002B04D0087810700F
:105910000020488001207047B0030020012070471C
:105920000449024600204B88002B02D10A70012056
:1059300048807047B00300200249096801700120C7
:10594000704700000438014038B51A48816941F4B5
:10595000804181618069184900F48040009041F6DF
:105960004C50086048151449083108600124081D8E
:105970000460091F42F26C0008600F49802008395A
:105980000860086820F080000860086820F02000A7
:105990000860086820F040000860002204212520EB
:1059A000FBF768FA2520FBF74FFA2520FBF757FA9B
:1059B000204638BD00100240083801400149086007
:1059C00001207047043801400120704738B5002499
:1059D0006846FFF7B1FF1448417831B1134A0129F5
:1059E00007D0022910D0032901D1FFF765FC20461A
:1059F00038BD002181809DF8003081880A44491C0F
:105A00008180137002210DE0818840F206439942A3
:105A100007D29DF8003081880A44491C81801370A8
:105A2000E3E703214170E0E798030020B030002055
:105A300070B5084D0024687810B1022803D1012008
:105A4000FFF76EFF0446FFF72FFC01206870204629
:105A500070BD00009803002070B5124C002521781D
:105A600011B101291CD104E000210120FFF708FC3D
:105A700016E0608850B1A0680078FFF79FFFA0682B
:105A8000401CA0606088401E608009E00320FFF792
:105A900047FF054600210120FFF7F2FB00202070A0
:105AA000284670BD980300201CB51A49087801905B
:105AB000FF20087008788DF800009DF80000164A55
:105AC00000F0500010700720906007E09068401EC2
:105AD00090609DF8000040008DF800009DF80000E7
